{
	"address": "0x5FbDB2315678afecb367f032d93F642f64180aa3",
	"_format": "hh-sol-artifact-1",
	"contractName": "House",
	"sourceName": "contracts/Game.sol",
	"abi": [
		{
			"inputs": [],
			"stateMutability": "nonpayable",
			"type": "constructor"
		},
		{
			"anonymous": false,
			"inputs": [
				{
					"indexed": false,
					"internalType": "address",
					"name": "from",
					"type": "address"
				},
				{
					"indexed": false,
					"internalType": "uint256",
					"name": "amount",
					"type": "uint256"
				}
			],
			"name": "AntePaid",
			"type": "event"
		},
		{
			"anonymous": false,
			"inputs": [
				{
					"indexed": true,
					"internalType": "bool",
					"name": "win",
					"type": "bool"
				},
				{
					"indexed": true,
					"internalType": "uint256",
					"name": "numberToMatch",
					"type": "uint256"
				},
				{
					"indexed": true,
					"internalType": "uint256",
					"name": "updatedWinnings",
					"type": "uint256"
				}
			],
			"name": "GameFinished",
			"type": "event"
		},
		{
			"anonymous": false,
			"inputs": [
				{
					"indexed": true,
					"internalType": "address",
					"name": "player",
					"type": "address"
				},
				{
					"indexed": true,
					"internalType": "uint256",
					"name": "guess",
					"type": "uint256"
				}
			],
			"name": "GuessSubmitted",
			"type": "event"
		},
		{
			"anonymous": false,
			"inputs": [
				{
					"indexed": true,
					"internalType": "address",
					"name": "previousOwner",
					"type": "address"
				},
				{
					"indexed": true,
					"internalType": "address",
					"name": "newOwner",
					"type": "address"
				}
			],
			"name": "OwnershipTransferred",
			"type": "event"
		},
		{
			"anonymous": false,
			"inputs": [
				{
					"indexed": true,
					"internalType": "address",
					"name": "player",
					"type": "address"
				},
				{
					"indexed": true,
					"internalType": "bool",
					"name": "playerReady",
					"type": "bool"
				}
			],
			"name": "PlayerReady",
			"type": "event"
		},
		{
			"anonymous": false,
			"inputs": [
				{
					"indexed": true,
					"internalType": "bool",
					"name": "win",
					"type": "bool"
				},
				{
					"indexed": true,
					"internalType": "uint256",
					"name": "numberToMatch",
					"type": "uint256"
				},
				{
					"indexed": true,
					"internalType": "uint256",
					"name": "updatedWinnings",
					"type": "uint256"
				}
			],
			"name": "RoundFinished",
			"type": "event"
		},
		{
			"anonymous": false,
			"inputs": [
				{
					"indexed": false,
					"internalType": "address",
					"name": "from",
					"type": "address"
				},
				{
					"indexed": false,
					"internalType": "address",
					"name": "to",
					"type": "address"
				},
				{
					"indexed": false,
					"internalType": "uint256",
					"name": "amount",
					"type": "uint256"
				}
			],
			"name": "Sent",
			"type": "event"
		},
		{
			"anonymous": false,
			"inputs": [
				{
					"indexed": false,
					"internalType": "uint256",
					"name": "generatedNumber",
					"type": "uint256"
				}
			],
			"name": "WinningNumberGenerated",
			"type": "event"
		},
		{
			"anonymous": false,
			"inputs": [
				{
					"indexed": true,
					"internalType": "address",
					"name": "to",
					"type": "address"
				},
				{
					"indexed": true,
					"internalType": "uint256",
					"name": "amount",
					"type": "uint256"
				}
			],
			"name": "withDrawEth",
			"type": "event"
		},
		{
			"inputs": [],
			"name": "ante",
			"outputs": [
				{
					"internalType": "uint256",
					"name": "",
					"type": "uint256"
				}
			],
			"stateMutability": "view",
			"type": "function"
		},
		{
			"inputs": [
				{
					"internalType": "address",
					"name": "",
					"type": "address"
				}
			],
			"name": "anteAmount",
			"outputs": [
				{
					"internalType": "uint256",
					"name": "",
					"type": "uint256"
				}
			],
			"stateMutability": "view",
			"type": "function"
		},
		{
			"inputs": [],
			"name": "gameBalance",
			"outputs": [
				{
					"internalType": "uint256",
					"name": "",
					"type": "uint256"
				}
			],
			"stateMutability": "view",
			"type": "function"
		},
		{
			"inputs": [],
			"name": "initialFund",
			"outputs": [],
			"stateMutability": "payable",
			"type": "function"
		},
		{
			"inputs": [
				{
					"internalType": "uint256",
					"name": "",
					"type": "uint256"
				}
			],
			"name": "multiplier",
			"outputs": [
				{
					"internalType": "uint8",
					"name": "",
					"type": "uint8"
				}
			],
			"stateMutability": "view",
			"type": "function"
		},
		{
			"inputs": [],
			"name": "owner",
			"outputs": [
				{
					"internalType": "address",
					"name": "",
					"type": "address"
				}
			],
			"stateMutability": "view",
			"type": "function"
		},
		{
			"inputs": [
				{
					"internalType": "address",
					"name": "",
					"type": "address"
				}
			],
			"name": "playerBalances",
			"outputs": [
				{
					"internalType": "uint256",
					"name": "",
					"type": "uint256"
				}
			],
			"stateMutability": "view",
			"type": "function"
		},
		{
			"inputs": [],
			"name": "playerReadyPayAnte",
			"outputs": [],
			"stateMutability": "payable",
			"type": "function"
		},
		{
			"inputs": [],
			"name": "renounceOwnership",
			"outputs": [],
			"stateMutability": "nonpayable",
			"type": "function"
		},
		{
			"inputs": [
				{
					"internalType": "address",
					"name": "",
					"type": "address"
				}
			],
			"name": "s_paid_ante",
			"outputs": [
				{
					"internalType": "bool",
					"name": "",
					"type": "bool"
				}
			],
			"stateMutability": "view",
			"type": "function"
		},
		{
			"inputs": [
				{
					"internalType": "address",
					"name": "",
					"type": "address"
				},
				{
					"internalType": "uint256",
					"name": "",
					"type": "uint256"
				}
			],
			"name": "s_user_guesses",
			"outputs": [
				{
					"internalType": "address",
					"name": "player",
					"type": "address"
				},
				{
					"internalType": "bool",
					"name": "paidAnte",
					"type": "bool"
				},
				{
					"internalType": "uint256",
					"name": "guess",
					"type": "uint256"
				},
				{
					"internalType": "uint256",
					"name": "numberToMatch",
					"type": "uint256"
				},
				{
					"internalType": "bool",
					"name": "win",
					"type": "bool"
				},
				{
					"internalType": "bool",
					"name": "gameFinished",
					"type": "bool"
				},
				{
					"internalType": "uint256",
					"name": "winnings",
					"type": "uint256"
				}
			],
			"stateMutability": "view",
			"type": "function"
		},
		{
			"inputs": [
				{
					"internalType": "uint256",
					"name": "ante_amount",
					"type": "uint256"
				}
			],
			"name": "setAnte",
			"outputs": [],
			"stateMutability": "nonpayable",
			"type": "function"
		},
		{
			"inputs": [
				{
					"internalType": "uint8",
					"name": "roundOne",
					"type": "uint8"
				},
				{
					"internalType": "uint8",
					"name": "roundTwo",
					"type": "uint8"
				},
				{
					"internalType": "uint8",
					"name": "roundThree",
					"type": "uint8"
				},
				{
					"internalType": "uint8",
					"name": "roundFour",
					"type": "uint8"
				},
				{
					"internalType": "uint8",
					"name": "roundFive",
					"type": "uint8"
				}
			],
			"name": "setMultiplier",
			"outputs": [],
			"stateMutability": "nonpayable",
			"type": "function"
		},
		{
			"inputs": [
				{
					"internalType": "uint256",
					"name": "_guess",
					"type": "uint256"
				},
				{
					"internalType": "uint256",
					"name": "_currRound",
					"type": "uint256"
				}
			],
			"name": "submitGuess",
			"outputs": [],
			"stateMutability": "nonpayable",
			"type": "function"
		},
		{
			"inputs": [
				{
					"internalType": "address",
					"name": "newOwner",
					"type": "address"
				}
			],
			"name": "transferOwnership",
			"outputs": [],
			"stateMutability": "nonpayable",
			"type": "function"
		},
		{
			"inputs": [],
			"name": "withdrawEth",
			"outputs": [],
			"stateMutability": "nonpayable",
			"type": "function"
		}
	],
	"bytecode": "0x608060405260006002553480156200001657600080fd5b50620000376200002b6200005d60201b60201c565b6200006560201b60201c565b620000476200012960201b60201c565b620000576200014860201b60201c565b620003a5565b600033905090565b60008060009054906101000a900473ffffffffffffffffffffffffffffffffffffffff169050816000806101000a81548173ffffffffffffffffffffffffffffffffffffffff021916908373ffffffffffffffffffffffffffffffffffffffff1602179055508173ffffffffffffffffffffffffffffffffffffffff168173ffffffffffffffffffffffffffffffffffffffff167f8be0079c531659141344cd1fd0a4f28419497f9722a3daafe3b4186f6b6457e060405160405180910390a35050565b62000139620001a860201b60201c565b65e35fa931a000600181905550565b62000158620001a860201b60201c565b6040518060a00160405280600160ff168152602001600260ff168152602001600360ff168152602001600460ff168152602001600560ff168152506003906005620001a592919062000262565b50565b620001b86200005d60201b60201c565b73ffffffffffffffffffffffffffffffffffffffff16620001de6200023960201b60201c565b73ffffffffffffffffffffffffffffffffffffffff161462000237576040517f08c379a00000000000000000000000000000000000000000000000000000000081526004016200022e9062000383565b60405180910390fd5b565b60008060009054906101000a900473ffffffffffffffffffffffffffffffffffffffff16905090565b826005601f01602090048101928215620002f05791602002820160005b83821115620002bf57835183826101000a81548160ff021916908360ff16021790555092602001926001016020816000010492830192600103026200027f565b8015620002ee5782816101000a81549060ff0219169055600101602081600001049283019260010302620002bf565b505b509050620002ff919062000303565b5090565b5b808211156200031e57600081600090555060010162000304565b5090565b600082825260208201905092915050565b7f4f776e61626c653a2063616c6c6572206973206e6f7420746865206f776e6572600082015250565b60006200036b60208362000322565b9150620003788262000333565b602082019050919050565b600060208201905081810360008301526200039e816200035c565b9050919050565b611f5e80620003b56000396000f3fe6080604052600436106100f35760003560e01c80638da5cb5b1161008a578063e3f2e4a411610059578063e3f2e4a41461030f578063e498a2741461033a578063e905069014610363578063f2fde38b1461036d576100f3565b80638da5cb5b14610298578063a0ef91df146102c3578063a108b664146102da578063e25c3f6514610305576100f3565b8063715018a6116100c6578063715018a6146101c45780637b38314c146101db5780637c5c38aa14610218578063891610911461025b576100f3565b806305e30f51146100f8578063185fd818146101355780634db4077d14610172578063627ebea21461019b575b600080fd5b34801561010457600080fd5b5061011f600480360381019061011a9190611471565b610396565b60405161012c91906114ba565b60405180910390f35b34801561014157600080fd5b5061015c60048036038101906101579190611533565b6103c0565b604051610169919061156f565b60405180910390f35b34801561017e57600080fd5b506101996004803603810190610194919061158a565b6103d8565b005b3480156101a757600080fd5b506101c260048036038101906101bd91906115f6565b61048b565b005b3480156101d057600080fd5b506101d9610610565b005b3480156101e757600080fd5b5061020260048036038101906101fd9190611533565b610624565b60405161020f919061156f565b60405180910390f35b34801561022457600080fd5b5061023f600480360381019061023a9190611671565b61063c565b60405161025297969594939291906116db565b60405180910390f35b34801561026757600080fd5b50610282600480360381019061027d9190611533565b6106e2565b60405161028f919061174a565b60405180910390f35b3480156102a457600080fd5b506102ad610702565b6040516102ba9190611765565b60405180910390f35b3480156102cf57600080fd5b506102d861072b565b005b3480156102e657600080fd5b506102ef6107e7565b6040516102fc919061156f565b60405180910390f35b61030d6107ef565b005b34801561031b57600080fd5b50610324610845565b604051610331919061156f565b60405180910390f35b34801561034657600080fd5b50610361600480360381019061035c9190611471565b61084b565b005b61036b61085d565b005b34801561037957600080fd5b50610394600480360381019061038f9190611533565b610ba4565b005b600381600581106103a657600080fd5b60209182820401919006915054906101000a900460ff1681565b60076020528060005260406000206000915090505481565b60006103e2610c27565b905082816001018190555060006103f7610ce6565b9050808260020181905550600061041683600101548460020154610d2c565b9050808360030160006101000a81548160ff021916908315150217905550843373ffffffffffffffffffffffffffffffffffffffff167ff8a4fdb4f1e6ed484ccf9dd879868965d63da6479d6a9b12c4b8ad33b86e60c060405160405180910390a3610483818585610d39565b505050505050565b610493610f3a565b8360ff168560ff16106104db576040517f08c379a00000000000000000000000000000000000000000000000000000000081526004016104d290611803565b60405180910390fd5b8260ff168460ff1610610523576040517f08c379a000000000000000000000000000000000000000000000000000000000815260040161051a90611803565b60405180910390fd5b8160ff168360ff161061056b576040517f08c379a000000000000000000000000000000000000000000000000000000000815260040161056290611803565b60405180910390fd5b8060ff168260ff16106105b3576040517f08c379a00000000000000000000000000000000000000000000000000000000081526004016105aa90611803565b60405180910390fd5b6040518060a001604052808660ff1660ff1681526020018560ff1660ff1681526020018460ff1660ff1681526020018360ff1660ff1681526020018260ff1660ff16815250600390600561060892919061137f565b505050505050565b610618610f3a565b6106226000610fb8565b565b60046020528060005260406000206000915090505481565b6006602052816000526040600020818154811061065857600080fd5b9060005260206000209060050201600091509150508060000160009054906101000a900473ffffffffffffffffffffffffffffffffffffffff16908060000160149054906101000a900460ff16908060010154908060020154908060030160009054906101000a900460ff16908060030160019054906101000a900460ff16908060040154905087565b60056020528060005260406000206000915054906101000a900460ff1681565b60008060009054906101000a900473ffffffffffffffffffffffffffffffffffffffff16905090565b610733610f3a565b3073ffffffffffffffffffffffffffffffffffffffff1663a108b6646040518163ffffffff1660e01b8152600401602060405180830381865afa15801561077e573d6000803e3d6000fd5b505050506040513d601f19601f820116820180604052508101906107a29190611838565b3373ffffffffffffffffffffffffffffffffffffffff167ffa3d42a385fe08b4f6c70e88033e431487723be2caa4fc7a52524f35e791c78460405160405180910390a3565b600047905090565b6107f7610f3a565b60006002541461083c576040517f08c379a0000000000000000000000000000000000000000000000000000000008152600401610833906118d7565b60405180910390fd5b34600281905550565b60015481565b610853610f3a565b8060018190555050565b60015434146108a1576040517f08c379a000000000000000000000000000000000000000000000000000000000815260040161089890611969565b60405180910390fd5b60001515600560003373ffffffffffffffffffffffffffffffffffffffff1673ffffffffffffffffffffffffffffffffffffffff16815260200190815260200160002060009054906101000a900460ff16151514610934576040517f08c379a000000000000000000000000000000000000000000000000000000000815260040161092b906119d5565b60405180910390fd5b60006040518060e001604052803373ffffffffffffffffffffffffffffffffffffffff16815260200160011515815260200160008152602001600081526020016000151581526020016000151581526020016001548152509050600660003373ffffffffffffffffffffffffffffffffffffffff1673ffffffffffffffffffffffffffffffffffffffff16815260200190815260200160002081908060018154018082558091505060019003906000526020600020906005020160009091909190915060008201518160000160006101000a81548173ffffffffffffffffffffffffffffffffffffffff021916908373ffffffffffffffffffffffffffffffffffffffff16021790555060208201518160000160146101000a81548160ff021916908315150217905550604082015181600101556060820151816002015560808201518160030160006101000a81548160ff02191690831515021790555060a08201518160030160016101000a81548160ff02191690831515021790555060c0820151816004015550506001600560003373ffffffffffffffffffffffffffffffffffffffff1673ffffffffffffffffffffffffffffffffffffffff16815260200190815260200160002060006101000a81548160ff02191690831515021790555034600760003373ffffffffffffffffffffffffffffffffffffffff1673ffffffffffffffffffffffffffffffffffffffff16815260200190815260200160002081905550600115153373ffffffffffffffffffffffffffffffffffffffff167f487cf4d09c122d8a29f79a48e4221ccfdf929b959f81e3374255b9520f8b5a8460405160405180910390a350565b610bac610f3a565b600073ffffffffffffffffffffffffffffffffffffffff168173ffffffffffffffffffffffffffffffffffffffff1603610c1b576040517f08c379a0000000000000000000000000000000000000000000000000000000008152600401610c1290611a67565b60405180910390fd5b610c2481610fb8565b50565b6000806001600660003373ffffffffffffffffffffffffffffffffffffffff1673ffffffffffffffffffffffffffffffffffffffff16815260200190815260200160002080549050610c799190611ab6565b90506000600660003373ffffffffffffffffffffffffffffffffffffffff1673ffffffffffffffffffffffffffffffffffffffff1681526020019081526020016000208281548110610cce57610ccd611aea565b5b90600052602060002090600502019050809250505090565b600080600590507fdb19d5db57f4695acbecc160f03300cabf5914b5bbbf0e90a12f6776bc4552cc81604051610d1c919061156f565b60405180910390a1600291505090565b6000818314905092915050565b60008015158260030160019054906101000a900460ff16151514610d92576040517f08c379a0000000000000000000000000000000000000000000000000000000008152600401610d8990611b65565b60405180910390fd5b6001151584151503610e2f5760006003600185610daf9190611ab6565b60058110610dc057610dbf611aea565b5b602091828204019190069054906101000a900460ff1660ff168360040154610de89190611b85565b9050808360040181905550808360020154600115157f54f9e6018a14e4f289542d4204312fcd57b460a7d48cfd5b24da338c1066324560405160405180910390a450610e87565b60018260030160016101000a81548160ff02191690831515021790555081600401548260020154600015157f2351919e370988e6dc61f3bc6f2990d5da21ef17ee794759d42ccda3d580d09a60405160405180910390a45b610eca6040518060400160405280601881526020017f77696e6e696e6773206265666f726520706179696e673a200000000000000000815250836004015461107c565b610ed8338360040154611118565b6000600560003373ffffffffffffffffffffffffffffffffffffffff1673ffffffffffffffffffffffffffffffffffffffff16815260200190815260200160002060006101000a81548160ff0219169083151502179055508390509392505050565b610f4261125f565b73ffffffffffffffffffffffffffffffffffffffff16610f60610702565b73ffffffffffffffffffffffffffffffffffffffff1614610fb6576040517f08c379a0000000000000000000000000000000000000000000000000000000008152600401610fad90611c13565b60405180910390fd5b565b60008060009054906101000a900473ffffffffffffffffffffffffffffffffffffffff169050816000806101000a81548173ffffffffffffffffffffffffffffffffffffffff021916908373ffffffffffffffffffffffffffffffffffffffff1602179055508173ffffffffffffffffffffffffffffffffffffffff168173ffffffffffffffffffffffffffffffffffffffff167f8be0079c531659141344cd1fd0a4f28419497f9722a3daafe3b4186f6b6457e060405160405180910390a35050565b6111148282604051602401611092929190611cb2565b6040516020818303038152906040527fb60e72cc000000000000000000000000000000000000000000000000000000007bffffffffffffffffffffffffffffffffffffffffffffffffffffffff19166020820180517bffffffffffffffffffffffffffffffffffffffffffffffffffffffff8381831617835250505050611267565b5050565b803073ffffffffffffffffffffffffffffffffffffffff1663a108b6646040518163ffffffff1660e01b8152600401602060405180830381865afa158015611164573d6000803e3d6000fd5b505050506040513d601f19601f820116820180604052508101906111889190611838565b10156111c9576040517f08c379a00000000000000000000000000000000000000000000000000000000081526004016111c090611d2e565b60405180910390fd5b6000811161120c576040517f08c379a000000000000000000000000000000000000000000000000000000000815260040161120390611dc0565b60405180910390fd5b6000600460008473ffffffffffffffffffffffffffffffffffffffff1673ffffffffffffffffffffffffffffffffffffffff1681526020019081526020016000208190555061125b8282611290565b5050565b600033905090565b60008151905060006a636f6e736f6c652e6c6f679050602083016000808483855afa5050505050565b6000808373ffffffffffffffffffffffffffffffffffffffff16836040516112b790611e11565b60006040518083038185875af1925050503d80600081146112f4576040519150601f19603f3d011682016040523d82523d6000602084013e6112f9565b606091505b50915091508161133e576040517f08c379a000000000000000000000000000000000000000000000000000000000815260040161133590611e72565b60405180910390fd5b7f3990db2d31862302a685e8086b5755072a6e2b5b780af1ee81ece35ee3cd334530858560405161137193929190611ef1565b60405180910390a150505050565b826005601f016020900481019282156114085791602002820160005b838211156113d957835183826101000a81548160ff021916908360ff160217905550926020019260010160208160000104928301926001030261139b565b80156114065782816101000a81549060ff02191690556001016020816000010492830192600103026113d9565b505b5090506114159190611419565b5090565b5b8082111561143257600081600090555060010161141a565b5090565b600080fd5b6000819050919050565b61144e8161143b565b811461145957600080fd5b50565b60008135905061146b81611445565b92915050565b60006020828403121561148757611486611436565b5b60006114958482850161145c565b91505092915050565b600060ff82169050919050565b6114b48161149e565b82525050565b60006020820190506114cf60008301846114ab565b92915050565b600073ffffffffffffffffffffffffffffffffffffffff82169050919050565b6000611500826114d5565b9050919050565b611510816114f5565b811461151b57600080fd5b50565b60008135905061152d81611507565b92915050565b60006020828403121561154957611548611436565b5b60006115578482850161151e565b91505092915050565b6115698161143b565b82525050565b60006020820190506115846000830184611560565b92915050565b600080604083850312156115a1576115a0611436565b5b60006115af8582860161145c565b92505060206115c08582860161145c565b9150509250929050565b6115d38161149e565b81146115de57600080fd5b50565b6000813590506115f0816115ca565b92915050565b600080600080600060a0868803121561161257611611611436565b5b6000611620888289016115e1565b9550506020611631888289016115e1565b9450506040611642888289016115e1565b9350506060611653888289016115e1565b9250506080611664888289016115e1565b9150509295509295909350565b6000806040838503121561168857611687611436565b5b60006116968582860161151e565b92505060206116a78582860161145c565b9150509250929050565b6116ba816114f5565b82525050565b60008115159050919050565b6116d5816116c0565b82525050565b600060e0820190506116f0600083018a6116b1565b6116fd60208301896116cc565b61170a6040830188611560565b6117176060830187611560565b61172460808301866116cc565b61173160a08301856116cc565b61173e60c0830184611560565b98975050505050505050565b600060208201905061175f60008301846116cc565b92915050565b600060208201905061177a60008301846116b1565b92915050565b600082825260208201905092915050565b7f4d756c7469706c6965727320666f72206c6f77657220726f756e6473206d757360008201527f74206265206c657373207468616e2068696768657220726f756e64732e000000602082015250565b60006117ed603d83611780565b91506117f882611791565b604082019050919050565b6000602082019050818103600083015261181c816117e0565b9050919050565b60008151905061183281611445565b92915050565b60006020828403121561184e5761184d611436565b5b600061185c84828501611823565b91505092915050565b7f416c726164792068617320696e697469616c20696e697469616c2066756e647360008201527f2e00000000000000000000000000000000000000000000000000000000000000602082015250565b60006118c1602183611780565b91506118cc82611865565b604082019050919050565b600060208201905081810360008301526118f0816118b4565b9050919050565b7f446f65736e2774206d6174636820726571756972656420616e746520636f737460008201527f2e00000000000000000000000000000000000000000000000000000000000000602082015250565b6000611953602183611780565b915061195e826118f7565b604082019050919050565b6000602082019050818103600083015261198281611946565b9050919050565b7f416e746520616c726561647920706169642e0000000000000000000000000000600082015250565b60006119bf601283611780565b91506119ca82611989565b602082019050919050565b600060208201905081810360008301526119ee816119b2565b9050919050565b7f4f776e61626c653a206e6577206f776e657220697320746865207a65726f206160008201527f6464726573730000000000000000000000000000000000000000000000000000602082015250565b6000611a51602683611780565b9150611a5c826119f5565b604082019050919050565b60006020820190508181036000830152611a8081611a44565b9050919050565b7f4e487b7100000000000000000000000000000000000000000000000000000000600052601160045260246000fd5b6000611ac18261143b565b9150611acc8361143b565b9250828203905081811115611ae457611ae3611a87565b5b92915050565b7f4e487b7100000000000000000000000000000000000000000000000000000000600052603260045260246000fd5b7f47616d6520697320616c7265616479206f7665722e0000000000000000000000600082015250565b6000611b4f601583611780565b9150611b5a82611b19565b602082019050919050565b60006020820190508181036000830152611b7e81611b42565b9050919050565b6000611b908261143b565b9150611b9b8361143b565b9250828202611ba98161143b565b91508282048414831517611bc057611bbf611a87565b5b5092915050565b7f4f776e61626c653a2063616c6c6572206973206e6f7420746865206f776e6572600082015250565b6000611bfd602083611780565b9150611c0882611bc7565b602082019050919050565b60006020820190508181036000830152611c2c81611bf0565b9050919050565b600081519050919050565b60005b83811015611c5c578082015181840152602081019050611c41565b60008484015250505050565b6000601f19601f8301169050919050565b6000611c8482611c33565b611c8e8185611780565b9350611c9e818560208601611c3e565b611ca781611c68565b840191505092915050565b60006040820190508181036000830152611ccc8185611c79565b9050611cdb6020830184611560565b9392505050565b7f47616d6520686173206e6f2045544820746f207061796f75742e000000000000600082015250565b6000611d18601a83611780565b9150611d2382611ce2565b602082019050919050565b60006020820190508181036000830152611d4781611d0b565b9050919050565b7f506c6179657220686173206e6f2077696e6e696e677320746f20706179206f7560008201527f742e000000000000000000000000000000000000000000000000000000000000602082015250565b6000611daa602283611780565b9150611db582611d4e565b604082019050919050565b60006020820190508181036000830152611dd981611d9d565b9050919050565b600081905092915050565b50565b6000611dfb600083611de0565b9150611e0682611deb565b600082019050919050565b6000611e1c82611dee565b9150819050919050565b7f4661696c656420746f2073656e64204574686572000000000000000000000000600082015250565b6000611e5c601483611780565b9150611e6782611e26565b602082019050919050565b60006020820190508181036000830152611e8b81611e4f565b9050919050565b6000819050919050565b6000611eb7611eb2611ead846114d5565b611e92565b6114d5565b9050919050565b6000611ec982611e9c565b9050919050565b6000611edb82611ebe565b9050919050565b611eeb81611ed0565b82525050565b6000606082019050611f0660008301866116b1565b611f136020830185611ee2565b611f206040830184611560565b94935050505056fea264697066735822122023ca7c03d28ba39a1b4a8f4b3b83b1d455aff7ec3ebfc576a053c886c020dd3a64736f6c63430008110033",
	"linkReferences": {},
	"deployedLinkReferences": {}
}