{
	"address": "0x5FbDB2315678afecb367f032d93F642f64180aa3",
	"_format": "hh-sol-artifact-1",
	"contractName": "House",
	"sourceName": "contracts/Game.sol",
	"abi": [
		{
			"inputs": [],
			"stateMutability": "nonpayable",
			"type": "constructor"
		},
		{
			"anonymous": false,
			"inputs": [
				{
					"indexed": false,
					"internalType": "address",
					"name": "from",
					"type": "address"
				},
				{
					"indexed": false,
					"internalType": "uint256",
					"name": "amount",
					"type": "uint256"
				}
			],
			"name": "AntePaid",
			"type": "event"
		},
		{
			"anonymous": false,
			"inputs": [
				{
					"indexed": true,
					"internalType": "address",
					"name": "player",
					"type": "address"
				},
				{
					"indexed": true,
					"internalType": "uint256",
					"name": "guess",
					"type": "uint256"
				}
			],
			"name": "GuessSubmitted",
			"type": "event"
		},
		{
			"anonymous": false,
			"inputs": [
				{
					"indexed": true,
					"internalType": "address",
					"name": "previousOwner",
					"type": "address"
				},
				{
					"indexed": true,
					"internalType": "address",
					"name": "newOwner",
					"type": "address"
				}
			],
			"name": "OwnershipTransferred",
			"type": "event"
		},
		{
			"anonymous": false,
			"inputs": [
				{
					"indexed": true,
					"internalType": "address",
					"name": "player",
					"type": "address"
				},
				{
					"indexed": true,
					"internalType": "bool",
					"name": "playerReady",
					"type": "bool"
				}
			],
			"name": "PlayerReady",
			"type": "event"
		},
		{
			"anonymous": false,
			"inputs": [
				{
					"indexed": false,
					"internalType": "address",
					"name": "from",
					"type": "address"
				},
				{
					"indexed": false,
					"internalType": "address",
					"name": "to",
					"type": "address"
				},
				{
					"indexed": false,
					"internalType": "uint256",
					"name": "amount",
					"type": "uint256"
				}
			],
			"name": "Sent",
			"type": "event"
		},
		{
			"anonymous": false,
			"inputs": [
				{
					"indexed": false,
					"internalType": "uint256",
					"name": "generatedNumber",
					"type": "uint256"
				}
			],
			"name": "WinningNumberGenerated",
			"type": "event"
		},
		{
			"anonymous": false,
			"inputs": [
				{
					"indexed": true,
					"internalType": "address",
					"name": "to",
					"type": "address"
				},
				{
					"indexed": true,
					"internalType": "uint256",
					"name": "amount",
					"type": "uint256"
				}
			],
			"name": "withDrawEth",
			"type": "event"
		},
		{
			"inputs": [],
			"name": "ante",
			"outputs": [
				{
					"internalType": "uint256",
					"name": "",
					"type": "uint256"
				}
			],
			"stateMutability": "view",
			"type": "function"
		},
		{
			"inputs": [
				{
					"internalType": "address",
					"name": "",
					"type": "address"
				}
			],
			"name": "anteAmount",
			"outputs": [
				{
					"internalType": "uint256",
					"name": "",
					"type": "uint256"
				}
			],
			"stateMutability": "view",
			"type": "function"
		},
		{
			"inputs": [
				{
					"internalType": "address",
					"name": "",
					"type": "address"
				}
			],
			"name": "balances",
			"outputs": [
				{
					"internalType": "uint256",
					"name": "",
					"type": "uint256"
				}
			],
			"stateMutability": "view",
			"type": "function"
		},
		{
			"inputs": [],
			"name": "gameBalance",
			"outputs": [
				{
					"internalType": "uint256",
					"name": "",
					"type": "uint256"
				}
			],
			"stateMutability": "view",
			"type": "function"
		},
		{
			"inputs": [],
			"name": "initialFund",
			"outputs": [],
			"stateMutability": "payable",
			"type": "function"
		},
		{
			"inputs": [],
			"name": "owner",
			"outputs": [
				{
					"internalType": "address",
					"name": "",
					"type": "address"
				}
			],
			"stateMutability": "view",
			"type": "function"
		},
		{
			"inputs": [],
			"name": "playerReadyPayAnte",
			"outputs": [],
			"stateMutability": "payable",
			"type": "function"
		},
		{
			"inputs": [],
			"name": "renounceOwnership",
			"outputs": [],
			"stateMutability": "nonpayable",
			"type": "function"
		},
		{
			"inputs": [
				{
					"internalType": "address",
					"name": "",
					"type": "address"
				}
			],
			"name": "s_paid_ante",
			"outputs": [
				{
					"internalType": "bool",
					"name": "",
					"type": "bool"
				}
			],
			"stateMutability": "view",
			"type": "function"
		},
		{
			"inputs": [
				{
					"internalType": "address",
					"name": "",
					"type": "address"
				},
				{
					"internalType": "uint256",
					"name": "",
					"type": "uint256"
				}
			],
			"name": "s_user_guesses",
			"outputs": [
				{
					"internalType": "address",
					"name": "player",
					"type": "address"
				},
				{
					"internalType": "bool",
					"name": "paidAnte",
					"type": "bool"
				},
				{
					"internalType": "uint256",
					"name": "guess",
					"type": "uint256"
				},
				{
					"internalType": "uint256",
					"name": "numberToMatch",
					"type": "uint256"
				},
				{
					"internalType": "bool",
					"name": "win",
					"type": "bool"
				},
				{
					"internalType": "bool",
					"name": "gameFinished",
					"type": "bool"
				}
			],
			"stateMutability": "view",
			"type": "function"
		},
		{
			"inputs": [
				{
					"internalType": "uint256",
					"name": "ante_amount",
					"type": "uint256"
				}
			],
			"name": "setAnte",
			"outputs": [],
			"stateMutability": "nonpayable",
			"type": "function"
		},
		{
			"inputs": [
				{
					"internalType": "uint256",
					"name": "_guess",
					"type": "uint256"
				}
			],
			"name": "submitGuess",
			"outputs": [],
			"stateMutability": "nonpayable",
			"type": "function"
		},
		{
			"inputs": [
				{
					"internalType": "address",
					"name": "newOwner",
					"type": "address"
				}
			],
			"name": "transferOwnership",
			"outputs": [],
			"stateMutability": "nonpayable",
			"type": "function"
		},
		{
			"inputs": [
				{
					"internalType": "address payable",
					"name": "_player",
					"type": "address"
				},
				{
					"internalType": "uint256",
					"name": "_amount",
					"type": "uint256"
				}
			],
			"name": "transferToPlayer",
			"outputs": [],
			"stateMutability": "nonpayable",
			"type": "function"
		},
		{
			"inputs": [],
			"name": "withdrawEth",
			"outputs": [],
			"stateMutability": "nonpayable",
			"type": "function"
		}
	],
	"bytecode": "0x608060405260006002553480156200001657600080fd5b50620000376200002b6200004d60201b60201c565b6200005560201b60201c565b620000476200011960201b60201c565b62000275565b600033905090565b60008060009054906101000a900473ffffffffffffffffffffffffffffffffffffffff169050816000806101000a81548173ffffffffffffffffffffffffffffffffffffffff021916908373ffffffffffffffffffffffffffffffffffffffff1602179055508173ffffffffffffffffffffffffffffffffffffffff168173ffffffffffffffffffffffffffffffffffffffff167f8be0079c531659141344cd1fd0a4f28419497f9722a3daafe3b4186f6b6457e060405160405180910390a35050565b620001296200013860201b60201c565b65e35fa931a000600181905550565b620001486200004d60201b60201c565b73ffffffffffffffffffffffffffffffffffffffff166200016e620001c960201b60201c565b73ffffffffffffffffffffffffffffffffffffffff1614620001c7576040517f08c379a0000000000000000000000000000000000000000000000000000000008152600401620001be9062000253565b60405180910390fd5b565b60008060009054906101000a900473ffffffffffffffffffffffffffffffffffffffff16905090565b600082825260208201905092915050565b7f4f776e61626c653a2063616c6c6572206973206e6f7420746865206f776e6572600082015250565b60006200023b602083620001f2565b9150620002488262000203565b602082019050919050565b600060208201905081810360008301526200026e816200022c565b9050919050565b61174880620002856000396000f3fe6080604052600436106100e85760003560e01c8063a108b6641161008a578063e3f2e4a411610059578063e3f2e4a4146102c6578063e498a274146102f1578063e90506901461031a578063f2fde38b14610324576100e8565b8063a108b6641461023f578063db56e0501461026a578063e25c3f6514610293578063e32c63291461029d576100e8565b80637c5c38aa116100c65780637c5c38aa1461017e57806389161091146101c05780638da5cb5b146101fd578063a0ef91df14610228576100e8565b8063185fd818146100ed57806327e235e31461012a578063715018a614610167575b600080fd5b3480156100f957600080fd5b50610114600480360381019061010f9190610f46565b61034d565b6040516101219190610f8c565b60405180910390f35b34801561013657600080fd5b50610151600480360381019061014c9190610f46565b610365565b60405161015e9190610f8c565b60405180910390f35b34801561017357600080fd5b5061017c61037d565b005b34801561018a57600080fd5b506101a560048036038101906101a09190610fd3565b610391565b6040516101b79695949392919061103d565b60405180910390f35b3480156101cc57600080fd5b506101e760048036038101906101e29190610f46565b610431565b6040516101f4919061109e565b60405180910390f35b34801561020957600080fd5b50610212610451565b60405161021f91906110b9565b60405180910390f35b34801561023457600080fd5b5061023d61047a565b005b34801561024b57600080fd5b50610254610536565b6040516102619190610f8c565b60405180910390f35b34801561027657600080fd5b50610291600480360381019061028c9190611112565b61053e565b005b61029b6106cc565b005b3480156102a957600080fd5b506102c460048036038101906102bf9190611152565b610722565b005b3480156102d257600080fd5b506102db6107c8565b6040516102e89190610f8c565b60405180910390f35b3480156102fd57600080fd5b5061031860048036038101906103139190611152565b6107ce565b005b6103226107e0565b005b34801561033057600080fd5b5061034b60048036038101906103469190610f46565b610b15565b005b60066020528060005260406000206000915090505481565b60036020528060005260406000206000915090505481565b610385610b98565b61038f6000610c16565b565b600560205281600052604060002081815481106103ad57600080fd5b9060005260206000209060040201600091509150508060000160009054906101000a900473ffffffffffffffffffffffffffffffffffffffff16908060000160149054906101000a900460ff16908060010154908060020154908060030160009054906101000a900460ff16908060030160019054906101000a900460ff16905086565b60046020528060005260406000206000915054906101000a900460ff1681565b60008060009054906101000a900473ffffffffffffffffffffffffffffffffffffffff16905090565b610482610b98565b3073ffffffffffffffffffffffffffffffffffffffff1663a108b6646040518163ffffffff1660e01b8152600401602060405180830381865afa1580156104cd573d6000803e3d6000fd5b505050506040513d601f19601f820116820180604052508101906104f19190611194565b3373ffffffffffffffffffffffffffffffffffffffff167ffa3d42a385fe08b4f6c70e88033e431487723be2caa4fc7a52524f35e791c78460405160405180910390a3565b600047905090565b610546610b98565b803073ffffffffffffffffffffffffffffffffffffffff1663a108b6646040518163ffffffff1660e01b8152600401602060405180830381865afa158015610592573d6000803e3d6000fd5b505050506040513d601f19601f820116820180604052508101906105b69190611194565b10156105f7576040517f08c379a00000000000000000000000000000000000000000000000000000000081526004016105ee9061121e565b60405180910390fd5b6000600360008473ffffffffffffffffffffffffffffffffffffffff1673ffffffffffffffffffffffffffffffffffffffff1681526020019081526020016000205411610679576040517f08c379a00000000000000000000000000000000000000000000000000000000081526004016106709061128a565b60405180910390fd5b6000600360008473ffffffffffffffffffffffffffffffffffffffff1673ffffffffffffffffffffffffffffffffffffffff168152602001908152602001600020819055506106c88282610cda565b5050565b6106d4610b98565b600060025414610719576040517f08c379a00000000000000000000000000000000000000000000000000000000081526004016107109061131c565b60405180910390fd5b34600281905550565b600061072c610dc9565b90508181600101819055506000610741610e88565b9050808260020181905550600061076083600101548460020154610ece565b9050808360030160006101000a81548160ff021916908315150217905550833373ffffffffffffffffffffffffffffffffffffffff167ff8a4fdb4f1e6ed484ccf9dd879868965d63da6479d6a9b12c4b8ad33b86e60c060405160405180910390a350505050565b60015481565b6107d6610b98565b8060018190555050565b6001543414610824576040517f08c379a000000000000000000000000000000000000000000000000000000000815260040161081b906113ae565b60405180910390fd5b60001515600460003373ffffffffffffffffffffffffffffffffffffffff1673ffffffffffffffffffffffffffffffffffffffff16815260200190815260200160002060009054906101000a900460ff161515146108b7576040517f08c379a00000000000000000000000000000000000000000000000000000000081526004016108ae9061141a565b60405180910390fd5b60006040518060c001604052803373ffffffffffffffffffffffffffffffffffffffff1681526020016001151581526020016000815260200160008152602001600015158152602001600015158152509050600560003373ffffffffffffffffffffffffffffffffffffffff1673ffffffffffffffffffffffffffffffffffffffff16815260200190815260200160002081908060018154018082558091505060019003906000526020600020906004020160009091909190915060008201518160000160006101000a81548173ffffffffffffffffffffffffffffffffffffffff021916908373ffffffffffffffffffffffffffffffffffffffff16021790555060208201518160000160146101000a81548160ff021916908315150217905550604082015181600101556060820151816002015560808201518160030160006101000a81548160ff02191690831515021790555060a08201518160030160016101000a81548160ff02191690831515021790555050506001600460003373ffffffffffffffffffffffffffffffffffffffff1673ffffffffffffffffffffffffffffffffffffffff16815260200190815260200160002060006101000a81548160ff02191690831515021790555034600660003373ffffffffffffffffffffffffffffffffffffffff1673ffffffffffffffffffffffffffffffffffffffff16815260200190815260200160002081905550600115153373ffffffffffffffffffffffffffffffffffffffff167f487cf4d09c122d8a29f79a48e4221ccfdf929b959f81e3374255b9520f8b5a8460405160405180910390a350565b610b1d610b98565b600073ffffffffffffffffffffffffffffffffffffffff168173ffffffffffffffffffffffffffffffffffffffff1603610b8c576040517f08c379a0000000000000000000000000000000000000000000000000000000008152600401610b83906114ac565b60405180910390fd5b610b9581610c16565b50565b610ba0610edb565b73ffffffffffffffffffffffffffffffffffffffff16610bbe610451565b73ffffffffffffffffffffffffffffffffffffffff1614610c14576040517f08c379a0000000000000000000000000000000000000000000000000000000008152600401610c0b90611518565b60405180910390fd5b565b60008060009054906101000a900473ffffffffffffffffffffffffffffffffffffffff169050816000806101000a81548173ffffffffffffffffffffffffffffffffffffffff021916908373ffffffffffffffffffffffffffffffffffffffff1602179055508173ffffffffffffffffffffffffffffffffffffffff168173ffffffffffffffffffffffffffffffffffffffff167f8be0079c531659141344cd1fd0a4f28419497f9722a3daafe3b4186f6b6457e060405160405180910390a35050565b6000808373ffffffffffffffffffffffffffffffffffffffff1683604051610d0190611569565b60006040518083038185875af1925050503d8060008114610d3e576040519150601f19603f3d011682016040523d82523d6000602084013e610d43565b606091505b509150915081610d88576040517f08c379a0000000000000000000000000000000000000000000000000000000008152600401610d7f906115ca565b60405180910390fd5b7f3990db2d31862302a685e8086b5755072a6e2b5b780af1ee81ece35ee3cd3345308585604051610dbb93929190611649565b60405180910390a150505050565b6000806001600560003373ffffffffffffffffffffffffffffffffffffffff1673ffffffffffffffffffffffffffffffffffffffff16815260200190815260200160002080549050610e1b91906116af565b90506000600560003373ffffffffffffffffffffffffffffffffffffffff1673ffffffffffffffffffffffffffffffffffffffff1681526020019081526020016000208281548110610e7057610e6f6116e3565b5b90600052602060002090600402019050809250505090565b600080600590507fdb19d5db57f4695acbecc160f03300cabf5914b5bbbf0e90a12f6776bc4552cc81604051610ebe9190610f8c565b60405180910390a1600591505090565b6000818314905092915050565b600033905090565b600080fd5b600073ffffffffffffffffffffffffffffffffffffffff82169050919050565b6000610f1382610ee8565b9050919050565b610f2381610f08565b8114610f2e57600080fd5b50565b600081359050610f4081610f1a565b92915050565b600060208284031215610f5c57610f5b610ee3565b5b6000610f6a84828501610f31565b91505092915050565b6000819050919050565b610f8681610f73565b82525050565b6000602082019050610fa16000830184610f7d565b92915050565b610fb081610f73565b8114610fbb57600080fd5b50565b600081359050610fcd81610fa7565b92915050565b60008060408385031215610fea57610fe9610ee3565b5b6000610ff885828601610f31565b925050602061100985828601610fbe565b9150509250929050565b61101c81610f08565b82525050565b60008115159050919050565b61103781611022565b82525050565b600060c0820190506110526000830189611013565b61105f602083018861102e565b61106c6040830187610f7d565b6110796060830186610f7d565b611086608083018561102e565b61109360a083018461102e565b979650505050505050565b60006020820190506110b3600083018461102e565b92915050565b60006020820190506110ce6000830184611013565b92915050565b60006110df82610ee8565b9050919050565b6110ef816110d4565b81146110fa57600080fd5b50565b60008135905061110c816110e6565b92915050565b6000806040838503121561112957611128610ee3565b5b6000611137858286016110fd565b925050602061114885828601610fbe565b9150509250929050565b60006020828403121561116857611167610ee3565b5b600061117684828501610fbe565b91505092915050565b60008151905061118e81610fa7565b92915050565b6000602082840312156111aa576111a9610ee3565b5b60006111b88482850161117f565b91505092915050565b600082825260208201905092915050565b7f47616d6520686173206e6f2045544820746f207061796f75742e000000000000600082015250565b6000611208601a836111c1565b9150611213826111d2565b602082019050919050565b60006020820190508181036000830152611237816111fb565b9050919050565b7f506c6179657220686173206e6f2062616c616e63652e00000000000000000000600082015250565b60006112746016836111c1565b915061127f8261123e565b602082019050919050565b600060208201905081810360008301526112a381611267565b9050919050565b7f416c726164792068617320696e697469616c20696e697469616c2066756e647360008201527f2e00000000000000000000000000000000000000000000000000000000000000602082015250565b60006113066021836111c1565b9150611311826112aa565b604082019050919050565b60006020820190508181036000830152611335816112f9565b9050919050565b7f446f65736e2774206d6174636820726571756972656420616e746520636f737460008201527f2e00000000000000000000000000000000000000000000000000000000000000602082015250565b60006113986021836111c1565b91506113a38261133c565b604082019050919050565b600060208201905081810360008301526113c78161138b565b9050919050565b7f416e746520616c726561647920706169642e0000000000000000000000000000600082015250565b60006114046012836111c1565b915061140f826113ce565b602082019050919050565b60006020820190508181036000830152611433816113f7565b9050919050565b7f4f776e61626c653a206e6577206f776e657220697320746865207a65726f206160008201527f6464726573730000000000000000000000000000000000000000000000000000602082015250565b60006114966026836111c1565b91506114a18261143a565b604082019050919050565b600060208201905081810360008301526114c581611489565b9050919050565b7f4f776e61626c653a2063616c6c6572206973206e6f7420746865206f776e6572600082015250565b60006115026020836111c1565b915061150d826114cc565b602082019050919050565b60006020820190508181036000830152611531816114f5565b9050919050565b600081905092915050565b50565b6000611553600083611538565b915061155e82611543565b600082019050919050565b600061157482611546565b9150819050919050565b7f4661696c656420746f2073656e64204574686572000000000000000000000000600082015250565b60006115b46014836111c1565b91506115bf8261157e565b602082019050919050565b600060208201905081810360008301526115e3816115a7565b9050919050565b6000819050919050565b600061160f61160a61160584610ee8565b6115ea565b610ee8565b9050919050565b6000611621826115f4565b9050919050565b600061163382611616565b9050919050565b61164381611628565b82525050565b600060608201905061165e6000830186611013565b61166b602083018561163a565b6116786040830184610f7d565b949350505050565b7f4e487b7100000000000000000000000000000000000000000000000000000000600052601160045260246000fd5b60006116ba82610f73565b91506116c583610f73565b92508282039050818111156116dd576116dc611680565b5b92915050565b7f4e487b7100000000000000000000000000000000000000000000000000000000600052603260045260246000fdfea26469706673582212206cc34ae138f70a430baf0c37b433e62697719ba7862664376d2871956d8c406f64736f6c63430008110033",
	"linkReferences": {},
	"deployedLinkReferences": {}
}